:020000040000FA
:04000000E3EF0BF02F
:1008000000436F6E7665727469646F3A20005661BA
:0B0810006C6F72204144433A2000004E
:10081C001250800B1B6E12501224216E11AE19EF68
:10082C0004F01BEF04F01CEF04F021802150D8B42D
:10083C0022EF04F024EF04F037EF04F02128D8A4C1
:10084C002AEF04F02CEF04F034EF04F0000E0F6EDE
:10085C00000E106E000E116E000E126E118E3FEF18
:10086C0004F0000E0F6E000E106E000E116E000ED6
:10087C00126E1650800B1B1A16501624206E15AED5
:10088C004AEF04F04CEF04F04DEF04F020802050C0
:10089C00D8B453EF04F055EF04F068EF04F02028BF
:1008AC00D8A45BEF04F05DEF04F065EF04F0000EEC
:1008BC00136E000E146E000E156E000E166E158E55
:1008CC0070EF04F0000E136E000E146E000E156E19
:1008DC00000E166E2050D8B476EF04F078EF04F0CA
:1008EC0080EF04F02150D8A47EEF04F080EF04F0E8
:1008FC008AEF04F0000E0F6E000E106E000E116EDB
:10090C00000E126E22EF06F015500F02F3CF26F0F8
:10091C00F4CF27F026501C6E1D6A1E6A1F6A2750E2
:10092C00226E236A246A256A14501002F3CF26F033
:10093C00F4CF27F026501C26000E1D221E221F224B
:10094C0027502226000E2322242225221350110286
:10095C00F3CF26F0F4CF27F026501C26000E1D22D4
:10096C001E221F2227502226000E2322242225225B
:10097C001EC01FF01DC01EF01CC01DF01C6A1350C1
:10098C001002F3CF26F0F4CF27F026501C26275068
:10099C001D22000E1E22000E1F2214500F02F3CF38
:1009AC0026F0F4CF27F026501C2627501D22000ECF
:1009BC001E22000E1F221EC01FF01DC01EF01CC0E8
:1009CC001DF01C6A13500F02F3CF26F0F4CF27F062
:1009DC0026501C2627501D22000E1E22000E1F2200
:1009EC0015501002F3CF26F0F4CF27F02650222614
:1009FC0027502322000E2422000E2522145011020F
:100A0C00F3CF26F0F4CF27F02650222627502322AE
:100A1C00000E2422000E252215501102F3CF26F0D1
:100A2C00F4CF27F02650176E2750186E196A1A6AE1
:100A3C0019C01AF018C019F017C018F0176A17501F
:100A4C00222618502322195024221A5025221CC069
:100A5C0017F01DC018F01EC019F01FC01AF0190EA7
:100A6C003DEF05F0D8901A32193218321732E82EB1
:100A7C0038EF05F017502226185023221950242243
:100A8C001A5025221EC01FF01DC01EF01CC01DF0E8
:100A9C001C6A205021C017F0186A1726000E182265
:100AAC00820E1724266EFF0E1820276E73EF05F0AA
:100ABC00D89022362336243625361FAE68EF05F043
:100ACC006AEF05F06BEF05F02280D8901C361D36CE
:100ADC001E361F362606D8A0270624AE78EF05F062
:100AEC007AEF05F05EEF05F0000E206E1FAE81EF81
:100AFC0005F083EF05F0A7EF05F0FF0E1C14176E41
:100B0C00FF0E1D14186EFF0E1E14196E7F0E1F148F
:100B1C001A6E1750181019101A10D8B498EF05F057
:100B2C009AEF05F09EEF05F0010E206EA7EF05F091
:100B3C0022A0A3EF05F0A5EF05F0A7EF05F09AEFC3
:100B4C0005F02050D8B4ADEF05F0AFEF05F0D3EFC2
:100B5C0005F0010E2226000E23222422252225A098
:100B6C00BAEF05F0BCEF05F0D3EF05F022C017F09B
:100B7C0023C018F024C019F025C01AF01A341A3208
:100B8C0019321832173217C022F018C023F019C0CE
:100B9C0024F01AC025F0264A272A27BEDEEF05F0DE
:100BAC00275008E12628D8A0DEEF05F0E0EF05F08D
:100BBC00EAEF05F0000E226E000E236E800E246EFE
:100BCC007F0E256E18EF06F027BEF7EF05F02750C5
:100BDC0006E12604D8B0F5EF05F0F7EF05F003EFCA
:100BEC0006F0000E226E000E236E000E246E000E18
:100BFC00256E000E1B6E18EF06F026C021F0FF0EBE
:100C0C002216FF0E23167F0E2416000E251621A089
:100C1C0012EF06F014EF06F015EF06F0248ED890C4
:100C2C002130256E1B50251222C00FF023C010F06E
:100C3C0024C011F025C012F012002B50800B386E1E
:100C4C002B502B243F6E2AAE2EEF06F030EF06F021
:100C5C0031EF06F03F803F50D8B437EF06F039EF54
:100C6C0006F04EEF06F03F28D8A43FEF06F041EF18
:100C7C0006F049EF06F0000E286E000E296E000EED
:100C8C002A6E000E2B6E2A8E000E2B6E56EF06F07F
:100C9C00000E286E000E296E000E2A6E000E2B6EB2
:100CAC002F50800B381A2F502F24406E2EAE61EF30
:100CBC0006F063EF06F064EF06F040804050D8B4C5
:100CCC006AEF06F06CEF06F081EF06F04028D8A42E
:100CDC0072EF06F074EF06F07CEF06F0000E2C6E4F
:100CEC00000E2D6E000E2E6E000E2F6E2E8E000E30
:100CFC002F6E89EF06F0000E2C6E000E2D6E000E7E
:100D0C002E6E000E2F6E2C502D102E102F10D8A4DE
:100D1C0092EF06F094EF06F0ACEF06F0000E286EA2
:100D2C00000E296E000E2A6E000E2B6E800E2A12FB
:100D3C007F0E2B1238502B1228C028F029C029F016
:100D4C002AC02AF02BC02BF0EFEF07F03F50D8A4AD
:100D5C00B2EF06F0B4EF06F0BEEF06F0000E286E10
:100D6C00000E296E000E2A6E000E2B6EEFEF07F0B0
:100D7C0040503FC030F0316A305E000E315A7F0E69
:100D8C003024396E000E31203A6E28C034F029C060
:100D9C0035F02AC036F02BC037F0000E286E000E4E
:100DAC00296E000E2A6E000E2B6E000E3B6E000E8E
:100DBC003C6E000E3D6E000E3E6E000E406E1FEF40
:100DCC0007F04050D8B4EDEF06F0EFEF06F006EF69
:100DDC0007F0D8903436353636363736D890283634
:100DEC0029362A362B363EAEFEEF06F000EF07F022
:100DFC0001EF07F02880D8903B363C363D363E3626
:100E0C002C50345C2D5035582E5036582F503758A6
:100E1C00D8A013EF07F015EF07F01EEF07F03E8C8C
:100E2C002C50345E2D50355A2E50365A2F50375A7E
:100E3C00402A190E406425EF07F027EF07F0E7EF83
:100E4C0006F03450351036103710D8B430EF07F0A8
:100E5C0032EF07F04AEF07F03B804AEF07F0D890EB
:100E6C00283629362A362B363EAE3FEF07F041EFB7
:100E7C0007F042EF07F02880D8903B363C363D36E1
:100E8C003E363906D8A03A062AAE4FEF07F051EF9E
:100E9C0007F035EF07F0000E406E3EAE58EF07F04E
:100EAC005AEF07F07EEF07F0FF0E3B14306EFF0E8B
:100EBC003C14316EFF0E3D14326E7F0E3E14336EB9
:100ECC003050311032103310D8B46FEF07F071EF8F
:100EDC0007F075EF07F0010E406E7EEF07F028A0CB
:100EEC007AEF07F07CEF07F07EEF07F071EF07F079
:100EFC004050D8B484EF07F086EF07F0AAEF07F064
:100F0C00010E2826000E29222A222B222BA091EF3B
:100F1C0007F093EF07F0AAEF07F028C030F029C0D4
:100F2C0031F02AC032F02BC033F03334333232324A
:100F3C003132303230C028F031C029F032C02AF0C2
:100F4C0033C02BF0394A3A2A3ABEB5EF07F03A5083
:100F5C0008E13928D8A0B5EF07F0B7EF07F0C2EFDA
:100F6C0007F0000E3A6E3968000E286E000E296EDE
:100F7C00000E2A6E000E2B6E3ABECFEF07F03A50E1
:100F8C0006E13904D8B0CDEF07F0CFEF07F0DDEF75
:100F9C0007F0000E3A6E000E396E000E286E000E31
:100FAC00296E000E2A6E000E2B6E000E386E39C0A4
:100FBC003FF03FA0E4EF07F0E6EF07F0E9EF07F0B2
:100FCC002A8EEAEF07F02A9ED8903F302B6EA0EFC6
:100FDC0006F01200030E936E88EC0BF001EC0CF093
:100FEC00F8EC0BF0CDEC0BF001C051F002C052F05C
:100FFC00010E046E010EEEEC0AF00E0E046E080EDD
:10100C00056EB2EC0BF00D0E046E010EEEEC0AF058
:10101C00030E046EE80E036E51C001F052C002F0D4
:10102C00B4EC0AF001C008F002C009F0000E0B6E1F
:10103C000A0E0A6E27EC0BF00850300F59EC0BF02F
:10104C00000E046E640E036E51C001F052C002F02B
:10105C00B4EC0AF001C008F002C009F0000E0B6EEF
:10106C000A0E0A6E27EC0BF00850300F59EC0BF0FF
:10107C00000E046E0A0E036E51C001F052C002F055
:10108C00B4EC0AF001C008F002C009F0000E0B6EBF
:10109C000A0E0A6E27EC0BF00850300F59EC0BF0CF
:1010AC0051C008F052C009F0000E0B6E0A0E0A6E09
:1010BC0027EC0BF00850300F59EC0BF0010E046EBE
:1010CC00020EEEEC0AF0010E046E080E056EB2EC88
:1010DC000BF00D0E046E020EEEEC0AF0000E2C6EF0
:1010EC00000E2D6E800E2E6E440E2F6E000E136EA3
:1010FC00000E146EA00E156E400E166E51C001F04F
:10110C0052C002F0036A046A000E0EEC09F001C032
:10111C000FF002C010F003C011F004C012F00EEC7E
:10112C0004F00FC028F010C029F011C02AF012C032
:10113C002BF023EC06F028C04BF029C04CF02AC051
:10114C004DF02BC04EF0000E136E000E146E480EB8
:10115C00156E430E166E4BC00FF04CC010F04DC008
:10116C0011F04EC012F00EEC04F00FC041F010C0A4
:10117C0042F011C043F012C044F0E8EC09F041C059
:10118C004FF042C050F0000E046E640E036E4FC060
:10119C0001F050C002F0B4EC0AF001C008F002C03B
:1011AC0009F0000E0B6E0A0E0A6E27EC0BF00850BD
:1011BC00300F59EC0BF0000E046E0A0E036E4FC08C
:1011CC0001F050C002F0B4EC0AF001C008F002C00B
:1011DC0009F0000E0B6E0A0E0A6E27EC0BF008508D
:1011EC00300F59EC0BF02E0E59EC0BF04FC008F0F1
:1011FC0050C009F0000E0B6E0A0E0A6E27EC0BF0B5
:10120C000850300F59EC0BF0F8EF07F000EF00F03E
:10121C00096E0950D8B415EF09F017EF09F039EF42
:10122C0009F004BE1EEF09F01CEF09F039EF09F0CC
:10123C0001C005F002C006F003C007F004C008F0BE
:10124C00051E061E071E081E052A000E0622072272
:10125C00082205C00BF006C00CF007C00DF008C04A
:10126C000EF041EF09F001C00BF002C00CF003C00E
:10127C000DF004C00EF00150021003100410D8A49D
:10128C004AEF09F04CEF09F056EF09F0000E016E31
:10129C00000E026E000E036E000E046EE7EF09F0F6
:1012AC00960E0A6E60EF09F00A2AD8900E320D32B3
:1012BC000C320B32000E0B14056E000E0C14066E65
:1012CC00000E0D14076EFE0E0E14086E055006105F
:1012DC0007100810D8A475EF09F077EF09F05AEF52
:1012EC0009F085EF09F00A2A010E0B26000E0C22DC
:1012FC000D220E22D8900E320D320C320B32000E13
:10130C000B14056E000E0C14066E000E0D14076EF9
:10131C00FF0E0E14086E0550061007100810D8A406
:10132C009AEF09F09CEF09F079EF09F0A4EF09F0BE
:10133C000A06D8900B360C360D360E360DBEA9EFBC
:10134C0009F0ABEF09F0B3EF09F0020E0A60B1EF50
:10135C0009F0B3EF09F09EEF09F00AB0B8EF09F00D
:10136C00BAEF09F0BBEF09F00D9ED8900A320AC013
:10137C0005F0066A076A086A05C008F0076A066A7B
:10138C00056A05500B1206500C1207500D1208502E
:10139C000E120950D8B4D5EF09F0D7EF09F0DFEFF2
:1013AC0009F004BEDEEF09F0DCEF09F0DFEF09F025
:1013BC000E8E0BC001F00CC002F00DC003F00EC07D
:1013CC0004F01200433444344A6E4A50D8A4F1EF6E
:1013DC0009F0F3EF09F0FDEF09F0000E416E000E7D
:1013EC00426E000E436E000E446E6AEF0AF041C06E
:1013FC0045F042C046F043C047F044C048F0200ED0
:10140C000DEF0AF0D8904832473246324532E82E7A
:10141C0008EF0AF04550496E438EFF0E4116FF0E41
:10142C004216FF0E4316000E4416960E4A5E4ABE36
:10143C0024EF0AF022EF0AF03AEF0AF04A50800A41
:10144C00970FD8B02CEF0AF02EEF0AF030EF0AF01D
:10145C00F3EF09F0D89044324332423241324A3EE3
:10146C0030EF0AF052EF0AF01F0E4A6440EF0AF018
:10147C0042EF0AF04AEF0AF0F3EF09F0D890413648
:10148C004236433644364A064A50D8A450EF0AF046
:10149C0052EF0AF044EF0AF04950D8B458EF0AF072
:1014AC005AEF0AF062EF0AF0441E431E421E416CD2
:1014BC00000E42224322442241C041F042C042F07D
:1014CC0043C043F044C044F01200036E000E026EA1
:1014DC000250D8B474EF0AF076EF0AF081EF0AF0FC
:1014EC0003C001F0013AF00E011681500F0B0110F0
:1014FC00816E85EF0AF081500F0B0310816E819481
:10150C008186100EE82EFED700D08196022A010E9D
:10151C00026493EF0AF095EF0AF06EEF0AF0030401
:10152C00D8B49BEF0AF09DEF0AF0A6EF0AF0020E7A
:10153C000318D8A4A4EF0AF0A6EF0AF0AFEF0AF054
:10154C00030E016E980EE82EFED7012EFCD7B3EFDA
:10155C000AF0100EE82EFED700D01200000E066E18
:10156C00000E056E03500410D8B4BFEF0AF0C1EFA3
:10157C000AF0E9EF0AF0010E076EC9EF0AF0D890F5
:10158C0003360436072A04AECEEF0AF0D0EF0AF089
:10159C00C5EF0AF0D890053606360350015C0450AE
:1015AC000258D8A0DCEF0AF0DEEF0AF0E3EF0AF005
:1015BC000350015E0450025A0580D8900432033265
:1015CC00072ED0EF0AF005C001F006C002F01200A1
:1015DC00076E040606EF0BF00450800F086E23EF25
:1015EC000BF00450C00F086E23EF0BF00450940F57
:1015FC00086E23EF0BF00450D40F086E23EF0BF0A2
:10160C000750056E066A0650000AD8B410EF0BF0AE
:10161C0023EF0BF00550010AD8B4F2EF0AF0030ADD
:10162C00D8B4F7EF0AF0010AD8B4FCEF0AF0070AB5
:10163C00D8B401EF0BF023EF0BF008506BEC0AF071
:10164C0012000A500B10D8B42EEF0BF030EF0BF049
:10165C0054EF0BF0010E0C6E38EF0BF0D8900A36ED
:10166C000B360C2A0BAE3DEF0BF03FEF0BF034EFCB
:10167C000BF00A50085C0B500958D8A048EF0BF03F
:10168C004AEF0BF04EEF0BF00A50085E0B50095A64
:10169C00D8900B320A320C2E3FEF0BF008C008F03A
:1016AC0009C009F01200026E000E036E0350D8B48C
:1016BC0062EF0BF064EF0BF06FEF0BF002C001F078
:1016CC00013AF00E011681500F0B0110816E73EF71
:1016DC000BF081500F0B0210816E81848186100EED
:1016EC00E82EFED700D08196032A010E036481EF09
:1016FC000BF083EF0BF05CEF0BF0100EE82EFED727
:10170C0000D0120020EE53F010EE05F0050EDBCFEA
:10171C00E3FFE806FCE281500F0B816E8194819609
:10172C00140E046E7A0EE82EFED7042EFCD7000E93
:10173C000B6E050E0B24D96EDA6A000EDA22DF501E
:10174C006BEC0AF00B2A050E0B64AFEF0BF0B1EF4C
:10175C000BF09FEF0BF01200BEEF0BF004C0F6FF86
:10176C0005C0F7FF0800F55059EC0BF0044A052AA8
:10177C0004C0F6FF05C0F7FF0800F5500009D8A417
:10178C00CAEF0BF0CCEF0BF0B4EF0BF01200C282EF
:10179C00C2B2D3EF0BF0D5EF0BF0CEEF0BF0C4CF02
:1017AC0005F0066A0550036EC350056E03C006F0C3
:1017BC0005C001F006C002F012000A0EF66E180EFB
:1017CC00F76E000EF86E00EE53F010EE06F0090006
:1017DC00F5CFEEFFE550E150FAE1000EF86E000196
:1017EC00F0EF07F09280000EC26E0E0EC16ED90E95
:1017FC00C06EC2801200010E6BEC0AF01200333284
:04180C00280C06019D
:020000040020DA
:08000000FFFFFFFFFFFFFFFF00
:020000040030CA
:0E000000000C0000FF8181FF0FC00FE00F40D9
:00000001FF
